:020000040800F2
:10000000D8780120C1010008A92B0008812A000826
:10001000A52B0008DD080008F52E000800000000F0
:10002000000000000000000000000000B12B0008EC
:10003000E108000800000000AD2B0008B52B000807
:10004000E7010008E7010008E7010008E7010008F0
:10005000E7010008E7010008E7010008E7010008E0
:10006000E7010008E7010008E7010008E7010008D0
:10007000E7010008E7010008E7010008E7010008C0
:10008000E7010008E7010008E7010008E7010008B0
:10009000E7010008E7010008E7010008E7010008A0
:1000A000E7010008E7010008E7010008E701000890
:1000B000E7010008E7010008CD2B0008E701000870
:1000C000E7010008E7010008E7010008E701000870
:1000D000E7010008E92E0008E7010008E701000831
:1000E000E7010008E7010008E7010008E701000850
:1000F000E7010008E7010008E7010008E701000840
:10010000E7010008E7010008E7010008E70100082F
:10011000E7010008E7010008012C0008E7010008DA
:10012000E7010008E7010008E7010008E70100080F
:10013000E7010008E7010008E7010008E7010008FF
:10014000E7010008E7010008E7010008E7010008EF
:10015000E7010008E7010008E7010008E7010008DF
:10016000E7010008E7010008E7010008E7010008CF
:10017000E7010008E7010008E701000800000000AF
:10018000E7010008E7010008E7010008E7010008AF
:10019000E7010008E7010008E7010008E70100089F
:1001A000E7010008E7010008E7010008DFF80CD0CC
:1001B00000F044FB0048004729A40308D878012038
:1001C000DFF82400016841F47001016007488047AE
:1001D00007480047FEE7FEE7FEE7FEE7FEE7FEE72B
:1001E000FEE7FEE7FEE7FEE788ED00E0B92B00083A
:1001F000AD0100082DE9F05F0546002092469B46C0
:1002000088460646814640241BE02846414647462C
:10021000224600F0CFF953465A46C01A914110D3F6
:1002200011461846224600F0B6F92D1A67EB010870
:100230004F4622460120002100F0ADF917EB0009DE
:100240004E41201EA4F10104DFDC484631462A4617
:100250004346BDE8F09F2DE9F0410024061B2546EA
:1002600071F1000605DA01240027D0EB070067EBE7
:100270000101161E73F1000605DA0027D2EB070212
:10028000012567EB0303FFF7B5FF86460E461746C9
:100290009C46AC4204D00025D0EB050E65EB010670
:1002A00024B10020D2EB000760EB030C704631460E
:1002B0003A466346BDE8F08140EA01039B0703D05C
:1002C00009E008C9121F08C0042AFAD203E011F895
:1002D000013B00F8013B521EF9D27047D2B201E057
:1002E00000F8012B491EFBD270470022F6E710B53B
:1002F00013460A4604461946FFF7F0FF204610BD94
:1003000030B504460020034600E05B1C934203D254
:10031000E05CCD5C401BF8D030BD2DE9FE4F81EA9A
:10032000030404F0004421F0004100944FF0000B5E
:1003300023F0004350EA01045ED052EA03045BD08C
:10034000C3F30A54C1F30A552C44A4F2F3340194C4
:10035000A0FB0254C1F3130141F48011C3F3130352
:1003600043F4801301FB024400FB034E840A970A06
:1003700044EA815447EA8357A4FB076802958D0A33
:1003800005FB07854FEA932C04FB0C542705029DBF
:100390004FEA065847EA1637B5EB08056EEB070C2F
:1003A000870E920E47EA811742EA8312A7FB0201E9
:1003B000B6EB0B0164EB00042B0D43EA0C335E1823
:1003C00044EB1C50DA465146E7FB0201C5F3130427
:1003D0004FEA0B3343EA14534FEA0432019C43EAD9
:1003E0000603A4F10C040294009CCDE900B400F0D3
:1003F00000F903B0BDE8F08F00200146F9E72DE9D0
:10040000F04D81EA030404F0004B21F0004514464E
:100410004FF0000A23F0004150EA050220D054EAD0
:1004200001021DD0C5F30A570246C5F31303C1F3F9
:100430001300C1F30A5640F4801543F48013A7EB70
:100440000608101BD64608F2FD3873EB050002D3F0
:1004500008F1010801E092185B41B8F1000F03DADE
:1004600000200146BDE8F08D00204FF480110646C3
:1004700084460EE0171B73EB050705D3121B63EBD5
:10048000050306434CEA010C49084FEA3000921874
:100490005B4150EA0107EDD152EA030012D082EA33
:1004A000040083EA0501084305D0101BAB4106D2C6
:1004B0000122002306E000224FF0004302E06FF02B
:1004C000010253101AEB06004CEB085110EB0A0026
:1004D00041EB0B01BDE8F04D00F07CB830B5041ED7
:1004E00071F1000404DB4FF00044404264EB010171
:1004F000141E73F1000405DB1C464FF0004352420A
:1005000063EB0403101A8B4101D2012030BD00209F
:1005100030BD30B5041E71F1000404DB4FF000441F
:10052000404264EB0101141E73F1000405DB1C461C
:100530004FF00043524263EB0403801A994101D209
:10054000012030BD002030BD0EB5C10F80EAE07043
:100550000844CA07002140F233438DE80E000A46E2
:100560000B4600F046F803B000BD30B50B4601461F
:1005700000202022012409E021FA02F59D4205D342
:1005800003FA02F5491B04FA02F52844151EA2F1EC
:100590000102F1DC30BD202A04DB203A00FA02F12E
:1005A000002070479140C2F1200320FA03F3194361
:1005B00090407047202A04DB203A21FA02F0002103
:1005C000704721FA02F3D040C2F120029140084363
:1005D0001946704710B5141E73F1000408DA401C68
:1005E00041F1000192185B411A4301D120F0010052
:1005F00010BD2DE9F04D92469B4611B1B1FA81F242
:1006000002E0B0FA80F220329046FFF7C4FF0446C1
:100610000F4640EA0A0041EA0B0153465A46084396
:1006200013D0114653EA010019D0C8F140025046D8
:10063000FFF7C0FF05460E46504659464246FFF7B3
:10064000AAFF084305D0012004E020463946BDE852
:10065000F08D0020054346EAE0762C4337430A98A4
:100660006305E40AA0EB08000022FD0A44EA4754AF
:100670000A3002D500200146E9E701051019694159
:10068000DDE9084500196941BDE8F04DA2E72DE913
:10069000FE4F804681EA0300C00F0C46009021F017
:1006A000004123F00045B8EB0200A94105D24046C5
:1006B000214690461C460B46024623F0004010435C
:1006C00047D0270DC7F30A00C3F30A510290401A1E
:1006D000019040286BDAC3F3130040F4801B0098AC
:1006E000924620B10023D2EB030A63EB0B0B019877
:1006F0005946C0F140025046FFF74DFF06460D46F1
:1007000050465946019A00F0ABF810EB08006141E1
:10071000002487EA115284EAE7731A4340D0009A12
:1007200062B3019A012A4FEA075215DC001B61EB04
:1007300002014FF0004202EA0752CDE90042001CDC
:1007400041F5801132462B46FFF753FF03B0BDE859
:10075000F08F40462146F9E7001B61EB0201001CC7
:1007600041F5801300185B412018A2F5001747EBF4
:10077000030140EAD570B6196D4111E06D084FEAEA
:10078000360645EAC0754FEA0752001B61EB0201CD
:10079000001C41F5801149084FEA30000019514111
:1007A00032462B4603B0BDE8F04FFFF713BF009869
:1007B000012240000023D0EB020263EBE0730098BB
:1007C00021464FEAE074B8EB000061EB0401E9E771
:1007D00083F000435BE781F0004158E7C1F30A5220
:1007E000C1F3130140F2FF3341F480119A4202DA5F
:1007F00000200146704740F233439A42A2F233424E
:1008000002DC5242FFF7D6BEFFF7C5BE30B5041E6C
:1008100071F1000404DB4FF00044404264EB01013D
:10082000141E73F1000405DB1C464FF000435242D6
:1008300063EB0403994208BF904230BD064C074D5C
:1008400006E0E06840F0010394E8070098471034A0
:10085000AC42F6D3FFF7AEFCD0D20708F0D20708BF
:10086000202A06DBCB17203A41FA02F043EAE07374
:1008700006E041FA02F3D040C2F120029140084361
:100880001946704770B58C1810F8015B15F0070316
:1008900001D110F8013B2A1106D110F8012B03E019
:1008A00010F8016B01F8016B5B1EF9D12B0705D421
:1008B0000023521E0DD401F8013BFAE710F8013B6A
:1008C000CB1A921C03E013F8015B01F8015B521E86
:1008D000F9D5A142D8D3002070BD0000FEE700008A
:1008E00070470000B0B5B3F5804F034616D153F8FA
:1008F00022C00020CCF6F0700CEA000E91E8310026
:10090000D1F818C040EA0E0040EA0410C96840EA75
:10091000052040EA0C0040EA014101E06FF070411F
:10092000002043F82210B0BD2DE9F04F86B00A68D0
:10093000804650F8223040F2800923F0010340F84D
:100940002230D1E90230D1E900C204900869D1E92E
:10095000077603904869D1E909A502908869D1E931
:100960000BBE0590486B082B0190C86BCFF6E07961
:10097000009058F82C0008BF42F04002049C00EAA6
:1009800009002243039C2243029C22433A43324300
:1009900042EA0A022A4342EA0B02059F42EA0E0299
:1009A0003A43019F3A43009F3A431043184348F8A3
:1009B0002C004A6BB2F5801F08D1086830B1D8F816
:1009C000000020F480101043C8F80000002006B09A
:1009D000BDE8F08F2DE9F04700EB82035A6891E8FB
:1009E000000702F0404E4EEA0805D1E9036740F2E5
:1009F000000C45EA0915CFF6F07C45EA0A25D1E955
:100A000005240CEB075745EA06463743FE322743D9
:100A100047EA02625A600268D20209D5426809694F
:100A200043680CEB01511A4322F4700211434160F8
:100A30000020BDE8F08700002DE9F0410B68026856
:100A4000E3B1D1E9073722F4F8424E6A1A433A4338
:100A500032430260426847F6FF739A43D1E9013797
:100A6000D1E903651A433A43D1E9054132432A43A8
:100A70002243114341600020BDE8F08147F6FF7337
:100A800022EA030CD1E90132D1E903E443EA0C0381
:100A900001F114081A4398E8E00142EA0E022243E9
:100AA0002A433243496A3A4342EA08021143016049
:100AB0000020BDE8F08100000246406943F6FE7365
:100AC000984340EA4101002051617047F0B581B080
:100AD00005460069144691E88C006FF315006FF02D
:100AE0001F061043C96806EB47171843384340EA0E
:100AF0004120286100F02EFCA969890602D400205B
:100B000001B0F0BD0646671C04D044B9032001B013
:100B1000F0BD00BFA8698006F1D5002FFAD000F023
:100B200019FC801BA042F5D9F0E700002DE9F04147
:100B30008368AAB340F6FF72CFF60F721A40CB68F3
:100B40004FF20006CFF6FF764F6906EB033300261F
:100B5000CFF6F07606EB07571A433A438260C26835
:100B6000D1E900378E686FF00F0402F0704204EB99
:100B700007176FF0FF04013B0D6904EB0626002404
:100B80001A43CFF6FF7489693A4304EB05453243B3
:100B900001392A4342EA0161C1600020BDE8F081C9
:100BA00003F0704CD1E90032D1E902E401F1100800
:100BB0004FF20001013B6FF00F07CFF6FF7198E88D
:100BC000600107EB02126FF0FF0701EB0431002414
:100BD00043EA0C0307EB0E27CFF6FF741A4304EB2E
:100BE000054500243A43CFF6F074114304EB065652
:100BF0002943A8F10104314341EA046181600020E6
:100C0000BDE8F08110B590F820E0D0F800C0AEF15A
:100C1000010EBEF1010FDCF808E00DD81EF0E05F18
:100C200010D0CEF3016EBEF1030F11D100F12401FB
:100C300001204FF4000235E000F1240101204FF4BF
:100C400080222FE000F1240101204FF4001229E05E
:100C5000012000FA0EF01860886828B14B68CC6853
:100C600044EAC303034303E00868CB6843EA405304
:100C70000CEB0E10C0F880310B69C0F88431097D8F
:100C8000012905D100F5C2710B6843F480730B6034
:100C90005168C0F88C11126800F5C071C0F8882145
:100CA000002001220B681A430A6010BDB0B590F80D
:100CB0002020013A012A2FD846F20060C4F2000039
:100CC000026842F001020260026822F47C52026073
:100CD000D1F814E0CC694A6A0368012C43EA022285
:100CE00002600EF01F024FF0010303FA02F2C36923
:100CF0006FEA020C23EA0203C36113D02CBBC36862
:100D000003EA0C03C360CB688C8844EA034300EB1E
:100D1000CE0423640B4611E0416A41F48021416214
:100D20000120B0BDC3681343C3600B688C8844EADC
:100D3000034300EBCE04236401F10C038C681B8891
:100D400043EA044300EBCE04636443688D6943EADD
:100D50000204D1F810E0096A002D08BF03EA0C0470
:100D600044604369BEF1000F43EA020408BF03EA8E
:100D70000C040129446102D1C1691143C1610168B8
:100D800021F0010101600020B0BD000090F820209A
:100D9000013A012A84BF0020704700681022002910
:100DA00008BF0C22805800F00300704710B590F87F
:100DB0002040013C012C0CD8D0F800C079B1DCF8FF
:100DC0001040A4070FD100F1240101204FF40012BC
:100DD00070E000F1240101204FF480226AE0DCF889
:100DE0000C40A4076AD0046804EB011CDCF8B04195
:100DF0000CF5D87E14F004049460DCF8B04119BFFF
:100E0000E4085460640D1460DEF80040002904F02A
:100E10000204D460DCF8B44104F00F041461DCF87F
:100E2000B441C4F307249461DCF8B4414FEA14449C
:100E30005461DCF8B8211A70026802EB0112D2F892
:100E4000B8214FEA12225A70026802EB0112D2F85E
:100E5000B8214FEA12429A70026802EB0112D2F8EE
:100E6000B8214FEA1262DA70026802EB0112D2F87E
:100E7000BC211A71026802EB0112D2F8BC214FEAC0
:100E800012225A71026802EB0112D2F8BC214FEA19
:100E900012429A71026802EB0112D2F8BC214FEAA9
:100EA0001262DA71006814BF00F1100100F10C0148
:100EB000002020220B681A430A6010BD00F12401B3
:100EC00001204FF40012F5E7014690F82000421E81
:100ED000D2B2012A88BF704709684A68920744BFA6
:100EE000042070470968890748BF03207047000045
:100EF00090F820100139012984BF00207047006854
:100F0000816882688068C1F38061C2F3C062114465
:100F1000C0F3007008447047B0B5C8B1044690F8FB
:100F2000200010B9204600F071F82068016841F0F7
:100F30000101016000F00EFA054600BF206841681B
:100F4000C90707D100F006FA401B0B28F6D312E0C0
:100F50000120B0BD016821F00201016000F0FAF942
:100F6000054600BF2068416889070DD500F0F2F9F9
:100F7000401B0B28F6D3606A052140F40030606204
:100F8000012084F82010B0BD217E0268012922F0E2
:100F9000800208BF80320260617E0268012922F06F
:100FA000400208BF40320260A17E0268012922F09F
:100FB000200208BF20320260E17E0268012922F08F
:100FC000100218BF10320260217F0268012922F04E
:100FD000080208BF08320260617F0268012922F01E
:100FE000040208BF04320260D4E901C2D4E9033527
:100FF00061691A432A431143ACF101021143C161F3
:1010000000200121606284F82010B0BDB0B586B028
:101010000024C4F202040068A4F5CE31884201D055
:1010200006B0B0BD002043F630010190C4F20201C9
:101030000A6901AD42F000720A610A6902F00072A9
:101040000192019A01900A6842F001020A600A685E
:1010500002F001020192019A0190086840F001003B
:1010600008600868012100F00100019001984FF428
:101070000060019002200290CDE903100920059044
:101080002046294600F08AF84FF48050019020460F
:10109000294600F083F806B0B0BD0000B0B50446A4
:1010A00090F8200001281DD1022084F8200020683B
:1010B000016821F00101016000F04CF9054600BF14
:1010C00020684068C00713D000F044F9401B0B288B
:1010D000F6D3606A40F400306062052084F8200096
:1010E0000120B0BD606A40F4002060620120B0BD04
:1010F00000206062B0BD000070B5866D044600F04F
:1011000029F994F83510022925D105462068216C6B
:10111000026822F016020260426922F080024261F7
:1011200009B9A16C19B1016821F0080101600168D9
:1011300021F00101016000BF20680068C0070ED0E7
:1011400000F008F9401B0628F6D320206065032034
:1011500084F835000CE080206065012008E0E06D37
:101160003F2101FA00F0B060012084F83500002032
:10117000002184F8341070BD90F83510022909D18F
:10118000052180F835100068016821F00101016037
:101190000020704780214165012070472DE9F04F04
:1011A00082B000F13E4242F2004502F1FF77C4F204
:1011B00002050A224FEAB726A84208BF0922092ED3
:1011C00038BF4FEAB7224FF0010A002400274FF042
:1011D0000009009209E000BF09F101090237B9F1E5
:1011E000100F04F1040400F0A6800A680AFA09FC52
:1011F00012EA0C08F0D0D1F804B00BF0030AAAF1FF
:101200000102012A12D882680323CE6803FA07FE7E
:1012100022EA0E02BE40324382604268CBF30016DF
:1012200022EA0C0206FA09F632434260BAF1030FD1
:101230001DD0C26803238D6803FA07F6B24305FA8E
:1012400007F63243BAF1020FC26010D16FF0030209
:1012500002EA59020244D2F820C004F01C050F2310
:101260000E69AB402CEA0303AE40334313620268BD
:1012700003234E68BB409A4306F00303BB401A4366
:1012800016F4403F4FF0010A0260A5D0002243F659
:1012900044030192C4F202031A6843F6004E42F47A
:1012A00080421A601A68C4F2010E02F48042019270
:1012B000019A29F003024FF6084C7244CFF6FF7CE6
:1012C00052F80C3004F00C060F25B540AB43009DDE
:1012D00005FA06F6334342F80C30DEF808204B6876
:1012E00042EA080643F60C4CDD0258BF22EA080623
:1012F000CEF80860C4F2010CDCF800209D0242EA3E
:10130000080658BF22EA0806CCF80060DEF8042080
:101310009D0342EA080658BF22EA0806CEF8046098
:10132000DEF80020DB0342EA080658BF22EA08067E
:10133000CEF8006050E702B0BDE8F08F00690840C9
:1013400018BF012070470000002A08BF090481610E
:101350007047000045F6C400C2F201000068704703
:1013600040F2E01045F6C401C2F20000C2F20101F1
:1013700000780A68104408607047000080B543F6A2
:101380000040C4F20200016841F40071016001688C
:1013900041F480610160016841F4807101600520C1
:1013A00000F00CFA0F2000F005F800F0C9F9002059
:1013B00080BD0000B0B540F2E012C2F2000240F27F
:1013C00004011278C2F200014FF47A730968B3FB8A
:1013D000F2F20446B1FBF2F1084600F04FFF0F2C89
:1013E0004FF001050CD858B94FF0FF3021460022CC
:1013F000002500F0B7F940F2E410C2F200000460EA
:101400002846B0BD2DE9F041044690F8A00001281F
:101410004FF0020008BFBDE8F0814FF0010884F8EA
:10142000A08084F8A100342002FB0040D1E900CE66
:10143000D1E90267D1E90453C0E91067C0E912534A
:10144000C0E90ECED1E906CED1E90865D1E90A732B
:10145000C0E91665C0E91873C0E914CE0B6B83664A
:10146000204601F00FFB2068C0F82480002084F89B
:10147000A18084F8A000BDE8F0810000002804BF2E
:101480000120704710B5044690F8A10028B900204B
:1014900084F8A000204600F063F8022084F8A10040
:1014A000D4E9000CD4E90223816921F07041816103
:1014B00042EA0C012269194383691143194381618E
:1014C00081684FF6000CCFF2000C01EA0C0181603C
:1014D000D4E90513826843EA014111438160C16880
:1014E00001EA0C01C160D4E90712C36842EA014174
:1014F0001943C160016901EA0C010161D4E90912D3
:10150000036942EA014119430161416901EA0C01A1
:101510004161D4E90B12436942EA01411943416137
:1015200094F8351094F83620C36A120403F07F4310
:10153000C36242EA012194F83420C36A114419437A
:10154000C162416B41F006014163816941F00101D3
:10155000816100200121C4F8A40084F8A11010BD0D
:1015600070B586B0002143F630000191C4F202004C
:10157000426942F2000442F0806242614269C4F270
:10158000020402F080620192019A0191026801ADA9
:1015900042F400020260026802F400020192019A21
:1015A0000191026842F002020260026802F0020247
:1015B0000192019A0191026842F0200202600268E1
:1015C00002F020020192019A0191026842F48072B5
:1015D0000260026802F480720192019A019102682D
:1015E00042F480720260026802F480720192019AF1
:1015F0000191026842F040020260026802F040027B
:101600000192019A0191016841F080010160006836
:10161000294600F0800001900198202001900120CF
:10162000CDE9020003200490A4F5E050FFF7B6FDD9
:10163000022002900E204FF480660590A4F54060D1
:1016400029460196FFF7AAFD4FF40070019020464D
:101650002946FFF7A3FD204629460196FFF79EFD88
:101660008020A4F50066019030462946FFF796FDDC
:101670004FF40460019030462946FFF78FFD4FF488
:101680007E400190A4F580602946FFF787FDF72092
:10169000019020462946FFF781FD06B070BD00008D
:1016A000F0B581B0054690F8A00001284FF0020087
:1016B0001CD0342403FB0454012785F8A07085F85E
:1016C000A10044F8381FD4E90A060844B118C4E957
:1016D0000102E160284621461A4601F0D3F9286844
:1016E0004762002085F8A17085F8A00001B0F0BD28
:1016F000F0B581B0054690F8A00001284FF0020037
:101700001CD03424012703FB045485F8A07085F80D
:10171000A10054F8380FA66808446060B018E06073
:10172000C4E90A12284621461A4601F0ABF9286896
:101730004762002085F8A17085F8A00001B0F0BDD7
:1017400070470000002848BF704700F01F010122C9
:1017500002FA01F14EF200124009CEF2000242F804
:101760002010704710B54EF60C5CCEF2000CDCF881
:101770000030C3F3022E8EF00704042C28BF04248B
:10178000BEF103034FF0FF3E0EFA04F438BF00230E
:10179000A14399400EFA03F39A43114300F16042CA
:1017A00000F00F03090102F56442043B6344002882
:1017B00048BF03F10C02117010BD00004EF60C5131
:1017C000CEF200010A684FF6FF031A4060F30A22C6
:1017D00042F0806040F0FD700860704770B582B0E4
:1017E0000020019043F64000C4F202000168402648
:1017F00041F0805101600068C4F20E2600F0805074
:101800000190019847F204050120C4F20005306000
:10181000FFF7A0FD044600BF2868C00306D4FFF709
:1018200099FD001BB0F57A7FF6D90EE001207060BB
:10183000FFF790FD044600BF2868800308D4FFF737
:1018400089FD001BB0F57A7FF6D9032002B070BD88
:10185000002002B070BD0000F0B581B004460078F1
:1018600043F6700610F0430FC4F2020634D0682726
:10187000C4F2472700203860FFF76CFD054600BF23
:1018800056F8700C000105D5FFF764FD401B0228D7
:10189000F6D993E02068C10740F09380810700F1FA
:1018A0009980400608D5E168D4E90102090641EAB9
:1018B000801040EA0270706101203860FFF74AFD35
:1018C000054600BF56F8700C000105D4FFF742FD35
:1018D000401B0228F6D971E0207810F00C0F49D097
:1018E0006827C4F247270020B860FFF733FD05469C
:1018F00056F8700C800005D5FFF72CFD401B022820
:10190000F6D95BE02068410713D5B169D4E9042317
:1019100001F0E04141EA821141EA0361256AB161C7
:10192000F1696FF0FF0221F4F85102EB0522114337
:10193000F16100070FD5B069216900F07060A269FC
:1019400040EA811040EA0270636AB061F06920F4F5
:1019500040301843F0610120B860FFF7FBFC0546FA
:1019600056F8700C800005D4FFF7F4FC401B0228E9
:10197000F6D923E02078800670D50020009056F834
:10198000300C47F2000740F0805046F8300C56F813
:10199000300CC4F2000700F08050009000983868C6
:1019A00040F480703860FFF7D5FC05463868C00504
:1019B00025D4FFF7CFFC401B0228F7D9032001B044
:1019C000F0BDD4E90121090741EA82117161810763
:1019D0007FF567AF7169626801F0E041E36841EA51
:1019E000821141EA0361E5697161F1696A1E21F0C2
:1019F0001F011143F16140063FF555AF5CE73068C8
:101A000010F4407013D0A16A01F4407188420ED0E6
:101A1000306840F64061C4F24721012220F4407052
:101A20000A6000220A6030603068C00727D1A06ACF
:101A300056F8681C4FF6FF4300F4407221F4F81189
:101A4000C0F6FF730340B2F5407F08BF194346F864
:101A5000681C31686FF31F30084330602078C0067F
:101A600002D4002001B0F0BD94F82C0040F6406193
:101A7000C4F24721C1F8A003002001B0F0BDFFF778
:101A800069FC054641F2883730688007CFD4FFF7FC
:101A900061FC401BB8424FF00300F5D9EDE70000B0
:101AA0002DE9F041002800F08B8043F60808C4F2CD
:101AB00002080446D8F8F8030D4600F00F008842EB
:101AC00007D288F8F853D8F8F80300F00F00A842BE
:101AD00076D12068810717D5410705D5D8F80010C1
:101AE00041F4E051C8F80010010705D5D8F80010FE
:101AF00041F46041C8F80010D8F80010A26821F045
:101B0000F0011143C8F80010C0073FD1D8F8F8031E
:101B100000F00F00A84207D988F8F853D8F8F80366
:101B200000F00F00A8424BD12068410707D5D8F834
:101B30000010E26821F4E0511143C8F800100007DA
:101B400008D5D8F80000216920F4604040EAC100BF
:101B5000C8F8000000F07CF8D8F8001045F6944270
:101B6000C1F30311C0F60402515C40F2040220FAF2
:101B700001F140F2E410C2F200000068C2F200027B
:101B80001160FFF717FC0020BDE8F0816068811E3E
:101B9000022907D258F8081C89015CBF0120BDE862
:101BA000F08110E0012807D158F8081C89035CBFB8
:101BB0000120BDE8F08106E058F8081C890702D42E
:101BC0000120BDE8F081D8F8001021F0030108439E
:101BD000C8F80000FFF7BEFB064641F2883700BF99
:101BE000D8F80000616800F00C00B0EB810F8DD0D8
:101BF000FFF7B0FB801BB842F2D90320BDE8F081AB
:101C000040F2040043F60801C2F20000C4F20201EF
:101C10000068096845F6A442C1F38221C0F60402B7
:101C2000515CC8407047000040F2040043F60801D0
:101C3000C2F20000C4F202010068096845F6A4423D
:101C4000C1F34231C0F60402515CC8407047000045
:101C500010B543F60404C4F20204606800F00C00FE
:101C600008280AD0042819BF42F20040C0F2F4004C
:101C700047F64000C0F27D1010BD2068216823683F
:101C8000490247F64001C0F27D1100F03F02C3F364
:101C900088105CBF42F20041C0F2F401A1FB0001D8
:101CA0000023FEF7A7FA21680222C1F3014102EBEB
:101CB0004101B0FBF1F010BD2DE9F04182B00028E8
:101CC00000F0A1800446007843F60006C007C4F285
:101CD000020643D0B06800F00C00042805D130683B
:101CE00080033BD56068C8BB8DE0B06800F00C0095
:101CF000082802D170684002F1D46568B5F5A02FBC
:101D00000AD0B5F5803F0BD0306820F480303060C9
:101D1000306820F4802006E0306840F48020306095
:101D2000306840F480303060FFF714FB002D05462A
:101D300011D000BF3068800310D4FFF70BFB401BAD
:101D40006428F7D920E100BFFFF704FB401B64289B
:101D50004FF0030054D830688003F5D42078800712
:101D60001AD5B06810F00C0F09D0B06800F00C0064
:101D7000082840F088807068400200F18480306854
:101D8000800702D5E06801283DD13068216920F044
:101D9000F80040EAC10030602078000737D420788E
:101DA00040074AD4A56955B3B06800F00C00082874
:101DB00040F09C80012D26D07068E16900F480021B
:101DC0008A4220D1216A00F03F028A421BD147F6A5
:101DD000C071626A0140B1EB821F14D1A16A4FF653
:101DE000FF73C903994300F44032A1F580318A4260
:101DF00009D1E16A00F07060B0EB016F03D10020FF
:101E000002B0BDE8F081012002B0BDE8F081606958
:101E1000002840F20000C4F2472056D00121C0F84B
:101E2000801EFFF797FA0546706F8007B7D4FFF75B
:101E300091FA401B0228F7D9A6E0306C10F08058C8
:101E40000AD100200190306C40F080503064306C3A
:101E500000F080500190019847F20007C4F200079B
:101E60003868C00524D4386840F480703860FFF7C3
:101E700071FA05463868C0051AD4FFF76BFA401BA3
:101E80000228F7D980E0E068002851D00020C4F291
:101E9000472001210160FFF75DFA054630688007A1
:101EA0003FF573AFFFF756FA401B0228F6D96BE0F7
:101EB000A568052D50D0012D52D0306F20F00100C3
:101EC0003067306F20F004004DE00021C0F8801E24
:101ED000FFF740FA054600BF706F80077FF55FAFE0
:101EE000FFF738FA401B0228F6D94DE00027C4F26C
:101EF000472700203866FFF72DFA022D05460BD143
:101F00003068800158D5FFF725FA401B02284FF0B2
:101F10000300F5D974E700BF306880017FF56FAF2B
:101F2000FFF718FA401B02284FF00300F4D967E7C7
:101F30000020C4F2472000210160FFF70BFA05469C
:101F4000306880077FF528AFFFF704FA401B0228AE
:101F50004FF00300F4D953E7306F40F004003067CE
:101F6000306F40F001003067FFF7F4F9002D0546AF
:101F700041F2883714D000BF306F800713D4FFF7C9
:101F8000E9F9401BB842F7D9032002B0BDE8F0815F
:101F9000FFF7E0F9401BB8424FF003003FF630AFC7
:101FA000306F8007F4D4B8F1000F7FF4FBAE306CD3
:101FB00020F080503064F5E604F11C052FCD084375
:101FC00040EA8210D9034FF6FF729143A1F58031A8
:101FD00040EA05600843706001203866FFF7BAF9EF
:101FE000044600BF306880013FF509AFFFF7B2F942
:101FF000001B02284FF00300F4D901E7002804BFBA
:1020000001207047B0B5044690F82C000D4628B961
:10201000002084F82D00204600F012F8022084F8F9
:102020002C002068211DFEF707FDD4E90002294697
:10203000FEF77CFD012084F82C000020B0BD0000DC
:10204000B0B586B0002143F630000191C4F2020021
:10205000826840F6000542F0010282608268C4F2A4
:10206000020502F001020192019A0191026801AC9D
:1020700042F004020260026802F004020192019A36
:102080000191026842F008020260026802F0080250
:102090000192019A0191026842F010020260026806
:1020A00002F010020192019A0191026842F02002AE
:1020B0000260026802F020020192019A0191016817
:1020C00041F0400101600068214600F040000190AD
:1020D00001980D200190022002900120039003201E
:1020E00004900C2005902846FFF758F84CF2037036
:1020F000019005F580602146FFF750F84FF6837098
:10210000019005F500602146FFF748F84FF63F00C3
:10211000019005F540602146FFF740F848F237107E
:10212000019005F580502146FFF738F806B0B0BDA4
:10213000B0B5054690F82C00022804BF0220B0BDBF
:1021400095F82C000124012808D1022085F82C00E4
:102150002868FEF7B1FC85F82C4000242046B0BD6D
:1021600070B5054690F82C00022804BF022070BD0F
:1021700000F0FB0001284FF001040DD1022085F88A
:102180002C0028680E46FEF7A1FC3068022808BF24
:10219000052485F82C400024204670BD002804BF8B
:1021A0000120704770B5044690F8490015460E4668
:1021B00028B9002084F84800204600F01DF8206867
:1021C00004F10801FEF7B0FB2068A2683146FEF773
:1021D00001FCD4E90102236B2946FEF783FB20684A
:1021E000A16850F8212042F0010240F8212001208E
:1021F00084F84900002070BDB0B586B0002043F6D9
:1022000030010190C4F202018A6840F6004442F0B5
:1022100001028A608A68C4F2020402F0010201929B
:10222000019A01900A6801AD42F008020A600A684A
:1022300002F008020192019A0190086840F0100033
:1022400008600868012100F01000019001984EF22A
:10225000B370019002200290CDE903100C2005908C
:1022600020462946FEF79AFF4FF68070019004F54C
:1022700080602946FEF792FF06B0B0BD411E0020E7
:10228000B0EB116F1CBF012070474EF21002CEF26E
:10229000000251604EF62351CEF20001F0230B7084
:1022A0000721906011607047704700007047000080
:1022B000002804BF0120704710B5044690F83D0087
:1022C00028B9002084F83C00204600F01FF80220C6
:1022D00084F83D002068211D00F098FC012084F85E
:1022E000460084F83E0084F83F0084F8400084F8FB
:1022F000410084F8420084F8430084F8440084F8E4
:10230000450084F83D00002010BD000080B582B07B
:10231000006841F20001C4F2000188421CBF02B013
:1023200080BD0020019043F64000C4F20200016825
:10233000032241F0100101600068012100F010004B
:10234000019001983620FFF70DFA362002B0BDE863
:102350008040FFF7F7B9000090F83D1001291CBF3D
:1023600001207047022180F83D10006841F2FF72A1
:10237000C168C4F20002904241F00101C1600DDC6D
:1023800040F2FF71C4F20001884215DCB0F1804FC9
:1023900029D040F20041C4F2000122E040F2FF31B6
:1023A000C4F20101884212DC41F60001C4F20001CE
:1023B000884218D0002112E040F60001C4F200016A
:1023C000884210D040F60041C4F2000109E044F216
:1023D0000001C4F20101884205D040F20041C4F27C
:1023E0000101884206D1816801F00701062904BF76
:1023F00000207047016841F0010101600020704732
:102400007047000010B5044600680169890744BFA1
:10241000C1685FEA81713FD420680169490744BF00
:10242000C1685FEA417143D420680169090744BF6C
:10243000C1685FEA017148D420680169C90644BFD8
:10244000C1685FEAC1614CD420680169C9071CBF3B
:10245000C1685FEAC17151D120680169090644BFB2
:10246000C1685FEA016150D420680169490644BF30
:10247000C1685FEA41614FD421680869800646BFA0
:10248000C8685FEA806010BD6FF0200220460A61D4
:10249000BDE81040FFF70ABF6FF0020101610121A2
:1024A0002177806980073ED02046FFF7A9FF40E0F2
:1024B0006FF00401016102212177806910F4407FEF
:1024C0003AD02046FFF79CFF3CE06FF00801016125
:1024D00004212177C069800737D02046FFF790FF9D
:1024E00039E06FF01001016108212177C06910F413
:1024F000407F33D02046FFF783FF35E06FF00101C6
:102500000161204600F038F8A6E76FF08001016114
:102510002046FFF7C9FEA7E76FF0400101612046A2
:1025200000F036F8A8E7204600F022F8204600F038
:1025300021F8002020776FE7204600F019F82046A8
:1025400000F018F8002020776EE7204600F010F821
:10255000204600F00FF8002020776DE7204600F0BD
:1025600007F8204600F006F8002020776CE700000E
:102570007047000070470000006841F20001C4F29B
:102580000001884218BF7047012036F071BD00007D
:10259000704700007047000070470000B0B582B07F
:1025A000044600680168C368426901F02F05202DC8
:1025B00003F0200506D12DB1204602B0BDE8B040A1
:1025C00000F0BCBB5FEA017C1EBF02F0010E03F409
:1025D000907212EB0E0253D1226B012A05D111F039
:1025E000100218BF13F0100236D10A0622D513F0DC
:1025F00080021FD094F83D1021293FD1A168B1F588
:10260000805F03D12169002900F03F81216A4A1CC3
:10261000226209784160E18C01390A04E1842DD1FC
:10262000C16821F08001C160C16841F04001C16012
:1026300002B0B0BD490621D513F040011ED0C168DB
:1026400021F04001C1602021204684F83D1002B0F5
:10265000BDE8B04000F012BA00210191016801917B
:102660004168019101994069400611D4A08DE18D26
:10267000E28D002A18BF884240F0DB8002B0B0BD76
:10268000C80718BF13F4807045D1480749D44FE0FC
:10269000A06B016849688AB2002AEFD0A38D9A42E4
:1026A000ECD2E185C069B0F5807F30D0206850E879
:1026B000030F216820F4807041E80302002AF5D15D
:1026C000206850E8050F216820F0010041E805026C
:1026D000002AF5D1206850E8050F216820F040005D
:1026E00041E80502002AF5D1202084F83E000020B0
:1026F000206300BF206850E8030F216820F010001D
:1027000041E80302002AF5D1A06BFEF7F5FCA08D8D
:10271000E18D401AB2E0206C40F0010020644807CF
:1027200006D5BEF1000F03D0206C40F002002064FB
:10273000880706D5BEF1000F03D0206C40F00400DE
:102740002064BCF1000F09D545EA0E00B0FA80F014
:10275000400903D1206C40F008002064206C002860
:102760003FF48CAF11F0200018BF002D02D020469E
:1027700000F0E4FA20684069216C00F0400001F0AC
:102780000801401848D000BF206850E8030F2168B6
:1027900020F4907041E80302002AF5D1206850E847
:1027A000050F216820F0010041E80502002AF5D15B
:1027B000206B01280AD100BF206850E8030F216870
:1027C00020F0100041E80302002AF5D1202084F80F
:1027D0003E000020206320684069400623D500BFEA
:1027E000206850E8050F216820F0400041E805020C
:1027F000002AF5D1A06BB0B142F63151C0F600010C
:102800000165FEF7B9FC00283FF438AFA06B016DFD
:1028100002B0BDE8B04008472046FFF7BDFE0020EB
:10282000206402B0B0BD204602B0BDE8B040FFF762
:10283000B3BE401A216851E8031F226821F4907149
:1028400042E80313002BF5D1216851E8051F2268E7
:1028500021F0010142E80513002BF5D1202184F875
:102860003E100021216300BF216851E8031F226848
:1028700021F0100142E80313002BF5D181B220466C
:1028800002B0BDE8B040FFF785BE216A31F8022BE7
:102890006FF35F2242602162BDE60000002804BFA2
:1028A0000120704710B5044690F83D0028B900207B
:1028B00084F83C00204600F021F8242084F83D00F4
:1028C0002068C16821F40051C160204600F096FAEA
:1028D0002068016921F490410161416921F02A01D8
:1028E0004161C16841F40051C16000202021206491
:1028F00084F83D1084F83E1010BD000070B586B01D
:102900000024C4F202040068A4F57041884201D09A
:1029100006B070BD002043F630010190C4F2020100
:102920004A6901AD42F010024A614A69072602F085
:1029300010020192019A01900A6842F001020A60B5
:102940000A6802F001020192019A0190086840F0C1
:10295000010008600868012100F001000190019861
:102960004FF40070019002200290CDE90310204640
:1029700029460596FEF712FC4FF480600190204630
:1029800029460596FEF70AFC2520FEF7DBFE2520EA
:1029900003210322FEF7E6FE06B070BD90F83E303C
:1029A000202B0BD100294FF0010318BF002A01D1C1
:1029B0001846704790F83C30012B01D10220704737
:1029C00000230363816222218285C285036480F82B
:1029D0003E10016980F83C3021B10168CA6842F4B8
:1029E0008072CA6000680023416941F001014161C1
:1029F000C16841F02001C16018467047006841F28B
:102A00000001C4F20101884218BF704740F2406CD7
:102A1000C2F2000CBCF8002011B2002923D440F20D
:102A20001C43C2F200031B78500404D40D2B0CD1BC
:102A300041F4804215E048F200000022CFF6FF701A
:102A40000A2B08BF41EA00020BE040F278506FF316
:102A50009F32C2F2000083544A1C90B2C72888BF3C
:102A60000022ACF8002040F2345040F21C41C2F287
:102A70000000C2F200010122FFF790BF7047000082
:102A8000FEE70000F0B50468D1E900CE04EBC21007
:102A90008B68CD68E668D0F88820002702F4704281
:102AA000C0F88820E268C0F6FF77C2F30B423E40D0
:102AB000624406EB0E4601323243C0F88820E268D9
:102AC000D0F88C606FF3DF2206F47046C0F88C609B
:102AD000E4682A446FF3DF242344013343EA0242CB
:102AE000C0F88C20D0F8942022F00702C0F894207F
:102AF0000B69C0F8943091F8322091F831408D691B
:102B0000D0F89C6000261204C0F89C6091F83070E8
:102B100042EA042242EA05623A44C0F89C20D0F816
:102B2000982040F2077422F0FF02C0F898204A690A
:102B3000072BC0F89820D0F8A02022EA0402C0F8A1
:102B4000A020D1E9074500F1840244EA0504C0F859
:102B5000A040D0F8AC40C0F8AC604C6AC0F8AC40C3
:102B600006D84AF2E440C0F6040050F8230000E022
:102B70000120D36AAEEB0C0703F0E023D362D1E966
:102B80000A3143437843033040EA0340D062106B7C
:102B900040F2FF73984310631163106840F0010026
:102BA0001060F0BDFEE700007047000070470000B5
:102BB00070470000FEF7D4BB4EF68850CEF20000FE
:102BC000016841F4700101607047000010B540F2E7
:102BD000EC44C2F200042068C068C0070BD040F289
:102BE000C400C2F2000000698047206800214162F1
:102BF0006421C162E16020686FF00101016110BDD4
:102C000040F2A440C2F20000FFF7FCBB10B540F652
:102C1000FF3E0368C4F2000E40F2004C7045C4F25F
:102C2000010C0FDCB0F1804F19D040F20042C4F229
:102C30000002904213D040F60002C4F2000290421B
:102C40000DD010E040F60042C4F20002904206D0DF
:102C5000604504D00022C4F20102904203D14A68C8
:102C600023F07003134341F6FF72C4F20002904256
:102C70000DDC70451FDCB0F1804F41D040F20042C6
:102C8000C4F2000290423BD040F6000221E043F63D
:102C9000FF72C4F20102904220DC42F20002C4F250
:102CA000000290422CD00022C4F20102904227D0B0
:102CB000604525D028E040F60042C4F20002904270
:102CC0001ED041F60002C4F20002904218D041F634
:102CD0000042C4F20002904212D015E044F2000219
:102CE000C4F2010290420BD044F60002C4F2010289
:102CF000904205D044F20042C4F20102904203D156
:102D0000CA6823F44073134323F080024B69D1F85F
:102D100000E08C681A430260C46240F48062C0F82C
:102D200028E0624504BF096901630121416110BDCA
:102D3000806B0021C185C184FFF72EBC81B090F863
:102D40003E1022291DD18268B2F5805F02D101694F
:102D5000002946D0816AB2F5805F07D00AB90269BE
:102D600022B10268526802F07F0201E002685268F4
:102D70000A70816A01318162C18D01390A04C185FD
:102D800001D001B070470168CA6822F02002CA6011
:102D9000CA6822F48072CA604A6922F001024A615C
:102DA000202180F83E10016B012923D1002101630D
:102DB000016851E8031F026821F0100142E8031383
:102DC000002BF5D101680A68D20606D500220092D0
:102DD0000A680092496800910099818D01B0FFF75F
:102DE000D9BB0168826A49686FF35F2122F8021B30
:102DF0008262C1E701B0FFF701BE000010B50446D2
:102E00000068D4E902C22369016921F440511143E9
:102E10000161626943EA0C01E3691143C268194325
:102E200049F20C639A431143C1604169A26921F4DC
:102E3000407141F20043114340F48062C4F2010347
:102E40009A42416102D1FEF7EFFE01E0FEF7D8FEA3
:102E5000E16963681922B1F5004FA0FB020121D19D
:102E60005A00DB0FFDF7C6F948F21F51C5F2EB110E
:102E7000A0FB01235A094FF69C73C0F6FF7303F1C0
:102E8000805302FB0300322303EBC000A0FB0101CF
:102E90004FF4F87000EA111000EB0210C1F3421178
:102EA00008441DE09A009B0FFDF7A4F948F21F515A
:102EB000C5F2EB11A0FB01235A094FF69C73C0F633
:102EC000FF7302FB0300322303EB0010A0FB0101A0
:102ED000F02000EA511000EB0210C1F34311084446
:102EE0002168886010BD000040F23450C2F200003A
:102EF000FFF754BBFEE700002DE9F04F83B0129DB1
:102F00001E468146DDE910700E9BDDE90C4B8A46BA
:102F100015F0020190460091CDE901203BD148B166
:102F2000E80709D015F00C0018BF012011991843CB
:102F3000081A00E000200290BB4517D2BBF11F0F1A
:102F400014D86FEA0B013944CBF11F02914238BF0C
:102F50000A4602F1010804EB0B0041463022FDF75E
:102F6000BDF90C9C0E9BC344DDF80480E80712D029
:102F7000029883450FD2BBF11F0F0CD8029A302163
:102F80000BF10100904204F80B1003D2BBF11F0FAC
:102F90008346F5D38346E80638D50F98690507D4EC
:102FA000BBF1000F04D0BB4512D002998B450FD066
:102FB000102819D115F0200104D1BBF1200F01D246
:102FC000782017E081B1BBF1200F0DD2582011E01D
:102FD000BBF101010A4618BFABF10202102818BF6D
:102FE0000A4693461028E5D0022807D1BBF11F0FEF
:102FF00004D8622004F80B000BF1010BBBF11F0F8A
:103000009EBF302004F80B000BF1010BBBF11F0F2A
:103010000DD80BB12D2006E0680703D4280706D58C
:10302000202000E02B2004F80B000BF1010BA80777
:1030300044460FD10298444683450BD2029842463B
:10304000A0EB0B07202051463346541CC847013FD4
:103050002246F7D1BBF1000F10D00C98A0F1010867
:1030600018F80B00514622463346ABF10105671CA8
:10307000C847002D3C46AB46F2D100E027460098F9
:1030800098B10199DDF80880781A40450BD24D427D
:10309000202051463A4633467C1CC84728194045F3
:1030A0002746F5D302E03C4600E03C46204603B00C
:1030B000BDE8F08F9A4238BF8854704770470000CF
:1030C0002DE9F04182B078B30D4679B300F12406C2
:1030D00004463046294631F055FB019068B3076934
:1030E0006168384612F09AFC626880463846294684
:1030F0002AF0F4FC04F130002AF012FB0090B0B189
:1031000001A904222AF0EAFC0198E16A006904227C
:103110000844043869462AF0E1FC626840462146CA
:1031200012F08AFC09E000BFFEE700BFFEE701994C
:10313000304631F0DDFA00200190019858B1006965
:10314000616812F06BFCE16B064628468847E1682F
:103150000844E06000E00026304602B0BDE8F0819F
:1031600010B540202AF0DAFB30B10021402204469D
:103170002AF086FD204610BDFEE700002DE9F04351
:1031800081B040F27867C2F2000797F8A50007F116
:10319000AC0480F0010087F8A50020462AF092FADE
:1031A000002800F0BA8005464FF000084FF00109F2
:1031B00008E000BF204629462AF09CFA0546002870
:1031C00000F0AB80286D35F027FF696B0844686319
:1031D00035F03AFF87F8A48095F8541097F8A520A9
:1031E000C1F340039342286500F08E8001F0FD009A
:1031F00040EA42004A0785F854001ED4686B002854
:103200001BD4080709D4A96939B128468847696AD7
:10321000EA6A014410446962E862284638F0A6FD73
:10322000E96809B12846884795F8540040F0040041
:1032300085F85400284638F001FD686B002863D4F7
:10324000296B8842C8BF6963296A28468847A96AEA
:1032500088420FD06A680646A86212B128683146D3
:10326000904797F8A40028B9AA681AB128463146B1
:10327000904700BF97F8A400002845D1D5E90C017C
:10328000814241DB95F8541011F0010205D16B6CBD
:103290005E1C022E24BF013B6B646B6C13B9EB6B9D
:1032A000A3B19AB9D5E90F3676426E6363B312B90A
:1032B000AA6B52426A6381F0010185F85410E96AF1
:1032C0006A6A6962C5E90B23E8631DE02046294666
:1032D0002AF0F4FA204687F8A4902AF0F3F9014680
:1032E000D7F8A80011B136F063F801E036F04CF8D9
:1032F000296909B128468847696909B1284688477C
:10330000284625F097FB00BF97F8A40000283FF45B
:1033100051AF20462AF0D6F950E701B0BDE8F0835E
:10332000B0B5044640680D4610B12946FFF7F8FFD6
:103330002268002A08BFB0BD20462946BDE8B0403B
:103340001047000070B50E680C463168054641B163
:1033500096F82200C00604D5216028462146FFF7D2
:10336000F1FF284621462660BDE87040FFF7D8BF30
:103370000FF0FABF10F080B806F0B0B82DE9F041B8
:10338000002A08BFBDE8F081144605464E1E6FF0C6
:103390005F0800BF013C6F1C06F078F9C5F30620FA
:1033A00008EB4000C0B206F047F906F0B3F9E8B206
:1033B00006F042F906F0AEF906F068F9A12006F031
:1033C0003BF906F0A7F9002006F0D6F8054606F00E
:1033D00081F906F8015F20043D46DBD1BDE8F081AC
:1033E00010B5044606F052F9C4F306206FF05F01F1
:1033F00001EB4000C0B206F01FF906F08BF9E0B215
:1034000006F01AF906F086F906F040F9A12006F058
:1034100013F906F07FF9002006F0AEF8044606F036
:1034200059F9204610BD00002DE9F041002A08BFDF
:10343000BDE8F081144605464F1E6FF05F0800BFDF
:1034400017F8016F013C06F021F9C5F3062008EBDF
:103450004000C0B206F0F0F806F05CF9E8B206F001
:10346000EBF806F057F9304606F0E6F806F052F9A8
:1034700006F030F90A2001F097FD200405F101055E
:10348000DED1BDE8F0810000B0B50C46054606F07F
:10349000FDF8C5F306206FF05F0101EB4000C0B2FC
:1034A00006F0CAF806F036F9E8B206F0C5F806F0FC
:1034B00031F9204606F0C0F806F02CF906F00AF9BA
:1034C0000A20BDE8B04001F06FBD0000B0B596B075
:1034D0000546406C50B36C4620460FF0A7F92046D5
:1034E00029460FF055FA4AF66971C0F603012046E5
:1034F0000FF038FA696C20460FF028FA20460021B8
:1035000001220FF03FFA42F61511C0F601012046E4
:103510000FF02AFA4AF66D71C0F6030120460FF04B
:103520000DFA20460FF068FA16B0B0BD284616B066
:10353000BDE8B04037F0BCBC70B5032A0CD0022AFD
:1035400010D0012A65D1027852FA81FEBEF1FF0F38
:1035500028BF4FF0FF0E0AE00278CCB262434FEA78
:10356000122E04E00278CCB2121B22EAE27E01F4B1
:103570007F42B2F57C4FC1F3072102D84478022C78
:1035800003D880F800E0417070BDB2F5407F38BFCD
:1035900070BDFF2C5FFA8EFC08D1027881F0FF032A
:1035A0005A431CFB0121090A017070BDDD78AC4251
:1035B00002D15D788D420DD081F0FF0584F0FF04CB
:1035C0006C436FEA1424E5B2C1EB0126B6FBF5F5B6
:1035D0009C71DD7104885D88A54203D11C8862441A
:1035E000944214D083F800E059700188DE79598044
:1035F000028886F0FF04D5B265431CFB0656997914
:1036000022F0FF02B6B242EA16229A8059719988D6
:10361000018070BD70B50C0A032A4FEA114E19D013
:10362000022A26D0012A5AD102784578867852FAA1
:1036300081FCBCF1FF0F55FA84F24FF0FF0328BF65
:103640009C46FF2A56FA8EF628BF1A46FF2E38BF30
:1036500033461EE00378CAB2457886785A434FEA6B
:10366000122CE2B25FFA8EF36A437343120A1B0A0A
:103670000FE00378CAB2457886789A1A22EAE27C8B
:10368000E2B25FFA8EF3AA1AF31A22EAE27223EA8E
:10369000E373090E08BF70BDFD2904D380F800C094
:1036A0004270837070BD047881F0FF065FFA8CF57C
:1036B00090F801C0744315FB0144D2B206FB0CF52F
:1036C00090F802E012FB0152120A4270DAB206FBD5
:1036D0000EF312FB0131240A090A0470817070BDD7
:1036E000B0B5B9B180290A4609D3B1FA81F2C2F165
:1036F0001A024FF0FF3303FA02F2D2430A447F2A40
:103700000CD8D31702EB93724FEAA20C0024092CB9
:103710000FDD3AE000244FF0000C36E0B2FA82F3FD
:10372000C3F11A04E24082F0200CC3F11904092C01
:103730002BDC00EB840252694FF0FF3E0EFA0CF3D3
:103740001A400CD052B192FAA2F2B2FA82FC00EB0B
:10375000C41202EB8C02D26BCAB93BE0FEE70269ED
:10376000631C0EFA03F312EA030E0AD09EFAAEF2BD
:10377000B2FA82F400EB84025269BEF1000FE1D18B
:1037800003E00022BEF1000FDCD1002212B3536827
:1037900023F003038B4200D2FEE7D368E3B19168C4
:1037A000E1B1CB60996000EBC41303EB8C0E5EF8C3
:1037B0003C3F93420ED18142CEF800100AD100EB7B
:1037C00084034FF0010E5D690EFA0CF125EA010148
:1037D000596121B11046B0BDFEE700BFFEE70169A7
:1037E0000EFA04F3994301611046B0BDF0B54A6882
:1037F000032A09D922F003030E1D9B1906D05D6828
:10380000EC0704D10846F0BDFEE700BFFEE7032A3F
:103810000CD925F003027F2A09D8D51702EB95723F
:103820004FEAA20E4FF0000C0AE000BFFEE7B2FA2A
:1038300082F5C5F11A04E24082F0200EC5F1190CA0
:10384000DD686DB39A686AB300EBCC14D560AA60EA
:1038500004EB8E0555F83C4F9C4211D182422A6000
:103860000ED100EB8C040127656907FA0EF225EAF8
:103870000202626122B9026907FA0CF7BA430261D7
:103880004868032810D95A6822F003021044043013
:10389000032848600AD920F0030081510846F0BD92
:1038A000FEE700BFFEE700BFFEE700BFFEE7000047
:1038B000B0B531B122B14B68DC0704D1FEE700BFDF
:1038C000FEE70020B0BD23F0030402F110039C4288
:1038D00011D2486803280DD920F0030201F1080035
:1038E000835823F0020383504A6822F001024A60A1
:1038F000B0BD00BFFEE701F1040C0CEB020303F1C5
:103900000B0503F1080E25F00305AE4501D000BFFD
:10391000FEE75D68A41A043C05F0030525430B2C63
:103920005D602DD94C6804F0030422434A605A6854
:10393000032A27D922F003055EF8052042F002028F
:103940004EF805205A68754442F001045C604C68EA
:1039500045F8043C032C17D924F0030545F80C1056
:1039600042F0030522F003027F2A5D600DD8D517CF
:1039700002EB95724FEAA20C4FF0000E0EE000BF72
:10398000FEE700BFFEE700BFFEE7B2FA82F5C5F131
:103990001A04E24082F0200CC5F1190E00EBCE12A1
:1039A00002EB8C0454F83C2F92B19BB1C3E9022086
:1039B000D36023600122036902FA0EF423430361FA
:1039C00000EB8E00436902FA0CF21A43426180E771
:1039D000FEE700BFFEE7000010B540F2A444C2F2CB
:1039E000000441F200020023C4F20002C4E90230E4
:1039F0002046C4E90021FEF75BFC2046BDE81040EC
:103A0000FEF7AABC10B524F085FC072818BF10BD2E
:103A100045F6B804C2F20104206818B135F0B0FBD5
:103A20000020206031F034FE044600F0A7FE45F689
:103A3000A800C2F20100006831F036FE2046BDE861
:103A400010402BF051BC0000B0B582B0044626F007
:103A5000EDFB054626F020FE38B1606C2064204660
:103A60002DF0F2FD012002B0B0BDE06A01212DF081
:103A700081FA18B1204624F0B5FA2AE02046012147
:103A80002FF0ACF94FF6FF71E06AA16401212AF032
:103A90006FFB2046242100222FF0B2FCD4E9100154
:103AA00081420BD06064019001AA204620212FF0B2
:103AB000A7FC0128D7D120462DF0C6FD284626F0C8
:103AC000FBFD042805D120462CF060FA002125F0EA
:103AD0006DFC012002B0B0BD10B524F01BFC07281E
:103AE00018BF10BD31F0D4FD044600F007FD40F2D0
:103AF000FC20C2F20000006831F0D6FD2046BDE88F
:103B000010402BF0F1BB000010B524F003FC072897
:103B100018BF10BD45F6B404C2F20104206818B104
:103B200035F02EFB0020206031F0B2FD044600F09D
:103B300025FE45F6A800C2F20100006831F0B4FD90
:103B40002046BDE810402BF0CFBB000010B524F09C
:103B5000E1FB072818BF10BD31F09AFD044600F0C4
:103B6000FDFB40F25020C2F20000006831F09CFDE5
:103B70002046BDE810402BF0B7BB000010B524F084
:103B8000C9FB072818BF10BD31F082FD044600F0C4
:103B9000F5FD45F6A800C2F20100006831F084FD91
:103BA0002046BDE810402BF09FBB0000C11C002840
:103BB00018BF21F00300704724F03CBF033029F008
:103BC000ADBE00002DE9F041054600681446476A85
:103BD0002846002223468846B847012829D000BF3E
:103BE00002281ED128682146026A2846904700B361
:103BF0000746286839464369284622469847AE69F1
:103C0000384611F005FF2146B047384611F0F8FE5E
:103C100028684146476A284600222346B8470228BA
:103C2000E0D028684146036928462246BDE8F041B5
:103C300018470020BDE8F081B0B58AB0DDF838E063
:103C400040F20C3C46F20044C2F2000CC4F2000404
:103C50004FF08075CCE90043CCE902E000246046D7
:103C6000CCE90421CCF81850ACF81C40FDF754F90D
:103C700000284FF0010001D00AB0B0BDCDE90640E8
:103C800008900E20099040F20C30C2F20000694604
:103C9000CDE90444CDE90244CDE90044FDF706F83E
:103CA00010B102200AB0B0BD40F20C30C2F20000E8
:103CB000FDF7F4F9002818BF03200AB0B0BD0000DA
:103CC000F0B581B0044640F20C300E46C2F200005E
:103CD00000210027FDF75AF8C0B140F2343540F218
:103CE0000C30C2F20005C2F2000000212A46334621
:103CF0000027FDF75BF848B928680027A04205D1E6
:103D0000A86818B9E868002808BF2F69F8B201B0A0
:103D1000F0BD0000B0B582B08C4640F25031C2F226
:103D200000010023C1E9000040F20C300124C1E988
:103D300002330A61C2F2000001AB62460194FCF753
:103D400061FFE8B940F20C30C2F20000FDF7D0F894
:103D5000032801D1002413E040F20C340025C2F204
:103D6000000400BF1D2D0AD86420013501F01CF9A4
:103D70002046FDF7BDF80328F4D1002400E001241B
:103D8000204602B0B0BD00002DE9F04F95B091463D
:103D90008A460546C87843F6D94143F6E542C0F65F
:103DA0000101C0F60102109310F0010008BF0A469D
:103DB00043F69D11089243F67D12C0F60101C0F64C
:103DC00001020B4608BF13460E93002808BF0A469F
:103DD00040F6B131C0F603010C9240F6C1320B46F9
:103DE000C0F6030208BF1346002840F6B930DDF8DC
:103DF00088800D9340F6A933C0F60300C0F6030394
:103E000008BF0A4601460B9208BF1946099108BF30
:103E100003460A930F9505E04FF0000C0F9D5FEAF3
:103E2000CC7052D0D8F81420002A4ED0D8E9010125
:103E3000D8F81030A0EB010E0C33002107E000BFD2
:103E40001F68AEEB070E013A03F1180306D01F7A84
:103E5000FF07F5D15F683944F5E700BFD8F81420B3
:103E6000002AD9D0002200244FF0000C07E000BF48
:103E7000D8F814000134844202F11802CED2D8F8E6
:103E80001070BE18357DEF07F2D1E9B19EFBF1F35A
:103E9000D6F810B0D6E901070BFB03F3BB42B8BF5D
:103EA0001F46B842C8BF07469F421EBF45F00100EB
:103EB00030754FF0010CD8F81000AEEB070E10442F
:103EC0000369C760C91AD3E7FEE728460021272205
:103ED0004FF0000B2CF008FF9AF80070D8F80C1087
:103EE000FB1EDBB202293A46B8BF0222022B4FF07A
:103EF000FF3328BF3A4653FA82F3042B2FD8D8F861
:103F00000420DFE803F003081017200020990024A4
:103F1000A1EB020B24E020990024891A01EBD17156
:103F20004FEA610B1CE0209B01319A1A92FBF1FBD6
:103F30005C4615E0209B9A1A92FBF1F404EBD471D5
:103F40004FEA610B0CE0022907DB209B01399A1A2A
:103F500092FBF1F44FF0000B02E04FF0000B002455
:103F60009AF80310C6B2C90705D0012E03D128461E
:103F70002BF082FF8344284649462BF05DFE002843
:103F800000F0888107461098814500F083812198D0
:103F9000079620440124C0F20604049038462146C6
:103FA0002CF0F0FF60B19AF80300400700F1628145
:103FB000A86809F10109018D8945C0F25F8163E1BB
:103FC0003846002181222CF08FFE000612D0D8F84E
:103FD000140058B1D8F810100C3100BF51F80C2C57
:103FE000BA420DD0013801F11801F7D15E464FF009
:103FF000000B08E0788D5E4620F44060788533E061
:104000005E46D1F800B09AF80310788DC9074FF4D6
:10401000006120F4406008BF4FF48061084407F15C
:1040200014040E9978852046884783451CD038466D
:104030002DF00AFB07F114030FCB0DF1440C8CE8B3
:104040000F00089A20465946904738462E2111AA5B
:104050002FF0D6F938462BF0DFFF27213A462FF014
:10406000CFF938462DF0F0FA9AF8010001281DD05A
:10407000022829D1D8F800000C99013020F0010461
:1040800007F114008847201A0B9A00EBD0753846C8
:10409000002190470A9A0446384600219047201A8A
:1040A00000EBD070401000EB650011E00C99D8F8DF
:1040B000005007F1140088470A9A04463846002148
:1040C00090472044281A03E00B9A38460021904775
:1040D0009AF803200799D207039006D0012904D14A
:1040E0000E9907F114008847361A0F9D38460021B3
:1040F0006A2206962CF0F8FD0446384600216B2211
:104100002CF0F2FD834638462CF0B6FE06463846C3
:104110002BF042FF04F0C041B1F1005F19D124F04F
:10412000C0416FF06042DDF80CC091425B4613D095
:104130006FF07042B1F1805FA8BF511A48F21F5270
:104140007143C5F2EB1251FB02F14A1102EBD1743B
:1041500002E0DDF80CC05B4603F0C041B1F1005F46
:10416000059415D123F0C0416FF0604291420FD009
:10417000B1F1805F6FF07042A8BF511A484348F216
:104180001F51C5F2EB1150FB01F0411101EBD0734F
:10419000394651F8144F9AF803004A68C00766463A
:1041A000019102920AD00D9A3846002166469B463C
:1041B00090470699029A5B46B44646189AF803005F
:1041C000C00709D10D9A384600219B4690470699B1
:1041D000029A5B4600EB010C1E9805990844001BEF
:1041E00000EB060B1F981844801A00EB0C045BEAE6
:1041F000040016D038462DF027FA07F114030FCB30
:1042000007F1140C58445A44214423448CE80F000D
:1042100038462DF019FA38465946224600232DF02B
:10422000DDFA9AF80300C007DDE906B005D00128E1
:1042300003D10498ABEB000B13E001980E9988476B
:104240000D9A5E468346384600219047099A0446F7
:10425000384600219047049931445944214401EBE8
:10426000000B9AF803000124C0F2060440077FF512
:104270009FAE00BFB9F1010906DBA868006850F8DD
:1042800029701FB906E000BF00271FB110988145B3
:104290007FF484AE15B0BDE8F08F000001207047B8
:1042A00070B582B0044624F03FF80546204624F05D
:1042B00031F8064628462BF0AFFE0B2E044609D0F7
:1042C000302E49D1E16A2046002202B0BDE870409C
:1042D00033F0CCB925F0AAFF10B1007A01283BD009
:1042E000694628462BF032FF94F8300010F00C0F8E
:1042F00014D028462BF0C0FD054620460021272279
:104300002CF0F2FCC0B2009905EBD572012808BF71
:10431000494201EB620090FBF5F009E028462BF0E2
:1043200075FD019900EBD07201EB620191FBF0F099
:10433000E66A20EAE07525F079FF0246002820466B
:10434000294618BF012233F091F9B54204D0204626
:10435000202100222FF054F802B070BDF0B581B0DA
:10436000002000272AF0B0FF40F25026C2F20006DB
:104370004FF480614FF4167230602FF035FA3068D8
:1043800027F0DEFC50A1044628F00EFE40F2602526
:10439000C2F20005284632F079FA4BF61041C0F619
:1043A0000701284632F04AFC20462946002229F01F
:1043B00043FF204602210022002329F0EBFF306852
:1043C00027F0BEFC40F2E815C2F2000545A12860C6
:1043D00028F0EAFD40F25424C2F20004204632F0F4
:1043E00055FA4BF6EC31C0F60701204632F026FCB8
:1043F00028682146002229F01FFF28680121322267
:104400003C2329F0C7FF306810F0FCFC012100229A
:104410000023044629F0BEFF2046782128222FF0F1
:10442000E3F9204627F08CFC4DF25301C0F607015A
:10443000054628F0B9FD284609210022002329F06D
:10444000A9FF40F26C26C2F20006304632F01EFA96
:104450004BF6C831C0F60701304632F0EFFB284674
:104460003146002229F0E8FE204610212EF044FCBF
:1044700012202FF057FF20F07F41204600222FF01E
:1044800005FA43F60931C0F6000120460722002351
:1044900029F05CFE45F6B404C2F20104206810B1B4
:1044A00034F06EFE27604AF21D30C0F603004FF470
:1044B000FA71002234F032FE206040F2EC10C2F2B9
:1044C0000000077001B0F0BD53797374656D20432F
:1044D0006F6E6E656374696F6E205374617475736B
:1044E0000000000043414E3A2047657474696E67CE
:1044F000207374617475732E2E2E00002DE9F04127
:1045000000204FF000082AF0DFFE40F2FC26C2F245
:1045100000064FF480614FF4167230602FF064F99A
:10452000306827F00DFC80A1044628F03DFD40F2E4
:104530008425C2F20005284632F0A8F94BF6104156
:10454000C0F60701284632F079FB204629460022B2
:1045500029F072FE204602210022002329F01AFFD2
:10456000306827F0EDFB45F6C807C2F2010775A1D8
:10457000386028F019FD3868012132223C2329F0E7
:1045800009FF40F2B425C2F20005284632F07EF958
:104590004BF6EC34C0F607042846214632F04EFBB9
:1045A00038682946002229F047FE306827F0C8FB0A
:1045B00040F20037C2F2000765A1386028F0F4FC31
:1045C000386801213222642329F0E4FE40F290256C
:1045D000C2F20005284632F059F92846214632F049
:1045E0002DFB38682946002229F026FE306827F086
:1045F000A7FB45F6AC07C2F2010758A1386028F0C6
:10460000D3FC3868012132228C2329F0C3FE40F20A
:10461000A825C2F20005284632F038F9284621467E
:1046200032F00CFB38682946002229F005FE30687C
:1046300027F086FB40F20437C2F2000749A1386038
:1046400028F0B2FC386801213222B42329F0A2FEFE
:1046500040F29C25C2F20005284632F017F92846A0
:10466000214632F0EBFA38682946002229F0E4FDB1
:10467000306810F0C7FB012100220023044629F016
:1046800089FE2046782128222FF0AEF8204627F018
:1046900057FB4DF25301C0F60701054628F084FC94
:1046A000284609210022002329F074FE40F27826D2
:1046B000C2F20006304632F0E9F84BF6C831C0F6D7
:1046C0000701304632F0BAFA28463146002229F076
:1046D000B3FD204610212EF00FFB12202FF022FEFA
:1046E00020F07F41204600222FF0D0F843F605212C
:1046F000C0F6000120460722002329F027FD45F6D9
:10470000B804C2F20104206818B134F039FDC4F8CD
:1047100000804AF28D30C0F603006421002234F09C
:10472000FDFC2060BDE8F0814443204275732056B3
:104730006F6C7461676520446574656374696F6E3E
:1047400000000000566F6C746167653A200000003D
:1047500043757272656E743A20000000506F776581
:10476000723A200045786369746174696F6E204302
:10477000757272656E743A20000000002DE9F041F8
:1047800045F6A808C2F20108D8F8000028B12CF0BC
:10479000C1FF002818BFBDE8F08100202AF094FD79
:1047A0004FF480614FF41672C8F800002FF01CF827
:1047B000D8F8000027F0C4FA45F6A405C2F20105B6
:1047C00053A1286028F0F0FB40F2C024C2F200049C
:1047D000204632F05BF84BF61041C0F60701204648
:1047E00032F02CFA28682146002229F025FD28689D
:1047F00002210022002329F0CDFDD8F8000010F09E
:1048000001FB032100220023054629F0C3FD2846B1
:10481000782128222EF0E8FF284627F091FA44A1BB
:10482000064628F0C1FB304609210022002329F06A
:10483000B1FD40F2D827C2F20007384632F026F820
:104840004BF6C834C0F607043846214632F0F6F974
:1048500030463946002229F0EFFC284610212EF080
:104860004BFA12202FF05EFD20F07F4128460022F7
:104870002FF00CF843F6D921C0F600012846072294
:10488000002329F063FCD8F8000010F0BBFA0321E4
:1048900000223223054629F07DFD28467821282272
:1048A0002EF0A2FF284627F04BFA23A1064628F057
:1048B0007BFB304609210022002329F06BFD40F2EA
:1048C000CC27C2F20007384631F0E0FF38462146D7
:1048D00032F0B4F930463946002229F0ADFC2846C2
:1048E00010212EF009FA12202FF01CFD20F07F413C
:1048F000284600222EF0CAFF43F64D31C0F60001D3
:10490000284607220023BDE8F04129F01FBC00BF64
:104910004D56444320495053204661756C742044E1
:104920006574656374696F6E2053797374656D0087
:104930004E657874000000005354415455530000F4
:10494000F0B581B000202AF0BFFC45F6D005C2F2D8
:1049500001054FF480614FF4167228602EF044FF79
:10496000286827F0EDF945F6CC06C2F2010638A119
:10497000306028F019FB40F2F024C2F20004204617
:1049800031F084FF4BF63441C0F60701204632F087
:1049900055F930682146002229F04EFC3068092183
:1049A0000022002329F0F6FC286810F02BFA40F2D0
:1049B0004426C2F20006092100226423306029F057
:1049C000E9FC3068962132222EF00EFF306827F085
:1049D000B7F940F24827C2F200071FA1386028F05B
:1049E000E3FA386809210022002329F0D3FC40F2C1
:1049F000E424C2F20004204631F048FF4BF6104197
:104A0000C0F60701204632F019F938682146002225
:104A100029F012FC306810212EF06EF93468122053
:104A20002FF080FC20F07F41204600222EF02EFF48
:104A3000306843F67D31C0F600010722002329F0DB
:104A400085FB286801B0BDE8F04030F02DBE00BF06
:104A500057656C636F6D650053746172740000007C
:104A600070B586B0002043F630010190C4F2020117
:104A70000A6841F6004442F080020A600A68C4F203
:104A8000020402F080020192019A0190086801ADCF
:104A900040F4807008600868294600F48070019036
:104AA00001984020019011200290012003900320E2
:104AB00004902046FCF772FB082004F58066019004
:104AC00030462946FCF76AFB304608210122FCF7F4
:104AD0003BFC204640210122FCF736FC06B070BDAD
:104AE0002DE9F04141F60044C4F20204804600275B
:104AF00004F58065002600BF204640210122FCF716
:104B000023FC022000F072FA28460821FCF716FC6C
:104B1000002818BF012040EA470720464021002214
:104B2000FCF712FC022000F061FA072E06F10106E4
:104B3000E2D3B8F1000F1DD0284608210022FCF76F
:104B400003FC022000F052FA204640210122FCF72B
:104B5000FBFB022000F04AFA204640210022FCF72D
:104B6000F3FB022000F042FA284608210122FCF75C
:104B7000EBFB14E0284608210122FCF7E5FB0220AC
:104B800000F034FA204640210122FCF7DDFB022030
:104B900000F02CFA204640210022FCF7D5FB022031
:104BA00000F024FAF8B2BDE8F0810000F0B581B061
:104BB00041F60046C4F202060446002706F5806569
:104BC000E0B2C20928460821FCF7BEFB022000F033
:104BD0000DFA304640210122FCF7B6FB022000F01E
:104BE00005FA304640210022FCF7AEFB6400072F97
:104BF00007F10107E4D328460821012201B0BDE8EE
:104C0000F040FCF7A1BB0000B0B541F60044C4F28F
:104C1000020404F58065284608210122FCF794FB74
:104C2000204640210122FCF78FFB022000F0DEF934
:104C3000284608210022FCF787FB022000F0D6F965
:104C4000204640210022FCF77FFB0220BDE8B04057
:104C500000F0CCB910B542F20004C4F202042046C0
:104C600008210022FCF770FB022000F0BFF9A4F538
:104C7000806040210122FCF767FB022000F0B6F9BA
:104C8000204608210122FCF75FFB0220BDE810400E
:104C900000F0ACB970B542F20005C4F20205284636
:104CA00008210122FCF750FB022000F09FF9A5F536
:104CB0008064204640210122FCF746FB022000F0E0
:104CC00095F928460821FCF739FB002638B300BFC8
:104CD000FA2E0BD20220013600F088F9284608216E
:104CE000FCF72CFB0028F3D1002618E02846082109
:104CF0000022FCF729FB022000F078F92046402131
:104D000001220126FCF720FB022000F06FF9284663
:104D100008210122FCF718FB022000F067F9204669
:104D200040210022FCF710FB022000F05FF9304622
:104D300070BD000010B584B090F8642002F001034B
:104D40008B421AD0002918BF012102F0FE02114443
:104D500080F86410C16A00F1500E9EE80C50D1E951
:104D6000054122440092CA187144019204EB0C02DE
:104D70000391694602922CF07FFC04B010BD000044
:104D800080B521F07F40114611F0B8FE20F07F4041
:104D900080BD00002DE9F04F85B08146866C90F80B
:104DA000210011F0BFFEB9F828408046E000B0FBBA
:104DB000F8FAB9F8267040F27860B9F82410C2F217
:104DC0000000F8303A460E23CDF800A013F028FB7F
:104DD00018B3B9F822100569090707FB04F403901A
:104DE0001FD499F81000F0B1012824D1D6F800B0F2
:104DF0000020049058460C21002223F0D9FF28B946
:104E000004AB58462946224623F0F0FE10B9049818
:104E1000A04210D0039813F073FB002005B0BDE84A
:104E2000F08F306A01E0D9F80C0010300168284694
:104E3000224628F053FE99F8210002960E283ED013
:104E40000AFB07FEBEF1000F39D04FF0FF3000FA29
:104E500008F02A1905EB0E01013A6FEA000A4FF03B
:104E6000000C002600200FE0074604EB0800013983
:104E700010F0F80306F101060F701CBF0123604615
:104E80007645A2EB03021AD01578C4B225FA04F0D5
:104E900010EA0A00E8D0B8F1070FE5D84546074602
:104EA000EBB2C3F10803454400FA03F35FFA85FB54
:104EB000DBB2BBF1080F47EA0307F1D3D5E7DDE921
:104EC0000201C161C9F82C10012005B0BDE8F08FC6
:104ED0002DE9F04381B0866C90F82150D6F800801F
:104EE0000446072D02D14FF0080910E0082D04D028
:104EF000092D05D14FF0400909E04FF0100906E0F7
:104F0000A5F10A00B0FA80F040094FEA8029608CD0
:104F100000071ED4207CF0B1012839D1484628F082
:104F2000FDFCA8B107460020009040460C2100225D
:104F300023F03EFF28B96B46404639464A4623F0E7
:104F400055FE10BB009848451FD1776005E000BFB3
:104F5000FEE7306A00E0E0680769072D276301D1AA
:104F600002200DE0082D03D0092D03D1102007E009
:104F7000042005E0A5F10A00B0FA80F04009000223
:104F80006063012001B0BDE8F083384623F052FD94
:104F9000002001B0BDE8F0837047000040F26831A6
:104FA000C2F200010860704780B54EF2180140F26D
:104FB0006832CEF20001C2F2000251F804CC12684D
:104FC000002350434FF47A7200FB02FE086800BFD2
:104FD0000A689042FCD003449B1A904298BF6344F5
:104FE0007345104628BF80BDF2E7000080B54EF241
:104FF000180140F26832CEF20001C2F2000251F80C
:1050000004CC1268002302FB00FE08680A68904284
:10501000FCD003449B1A904298BF634473451046EA
:1050200028BF80BDF2E7000010B10268D2691047C6
:10503000FEE70000B0B5044623F06CF905462046B3
:1050400023F0B2F9352D18BFB0BDD0F8F80218B171
:10505000BDE8B04034F0ACB9B0BD0000B0B582B02E
:10506000B1F800E08C8894460A898B890546704621
:105070002146CDF800C005F0A5FF284602B0BDE8E6
:10508000B04011F0BDBF000070B50446C0690028F3
:105090001CBF002070BD0E4608460021012213F0FF
:1050A000EFFDE8B10546304614F06CFBC0B10220BC
:1050B000A86405F13800A0602879666001380928E5
:1050C000E5614AD8DFE800F0050F161D242B3237C2
:1050D0003E43E96C05F10802204620F0C7F93CE0A8
:1050E0004FF0FF3070BDE96C05F1080220461FF05B
:1050F00015F932E0E96C05F1080220461FF0D2FBF9
:105100002BE0E96C05F10802204620F00DFC24E0BC
:10511000E96C05F10802204620F0E2FB1DE0E96C95
:1051200005F10802204620F00BFC16E0E96C204651
:1051300020F026FC11E0E96C05F10802204615F08C
:1051400019FC0AE0E96C204622F0A6FA05E0E96CB9
:1051500005F10802204621F015FBE0690321816476
:105160000020E06113F004FD012070BD2DE9F0473F
:10517000A0B088464FF6FF718A424AD0C46A1746EB
:10518000B4F828A006469A4504D0608D238540F0E7
:105190000800608520464FF480215A222BF0A4FDA0
:1051A000814620464FF480215C222BF09DFD054670
:1051B000484623F033FCF16A8146084600212AF074
:1051C0003BFD09EB0501806901FB07F205EBD57397
:1051D000A2EB630210441D900844F16A01381F904D
:1051E0004869C9696D461C9028461E9115F07EFBE2
:1051F00020464FF480212A462CF078F81CAA40461D
:10520000294615F0E5F8608DA4F828A020F00800E4
:10521000608520B0BDE8F0872DE9F043A1B0884655
:105220004FF6FF718A4224D0C46A1646B4F828901B
:105230000746994504D0608D238540F008006085BD
:105240000CAD284613F034FF20464FF480212A4647
:105250002BF084FF20464FF480215C222BF044FD8C
:10526000F96A1A9041B1084600212AF0E5FC074688
:105270002FB921B0BDE8F0830027002FF9D0149892
:1052800023F0CCFB1A99BA69084401EBD171A2EB67
:10529000610100FB061108F1180608440138099164
:1052A0000B906069E16908900A9104A808AA314648
:1052B0000EF08AFBB8B196E80B00F2688DE80B009F
:1052C00004AB03920FCB07F1140586E80F003846B4
:1052D00027F034F913900CA940462A4613F0B8FE83
:1052E0009DE80F000FC6608DA4F8289020F00800FC
:1052F000608521B0BDE8F0832DE9F04790B01C46F1
:1053000015460029824653D008790F4608284FD801
:105310000121814011F48B7F34D0B8680DF104086D
:10532000D0E90061D0E90220CDE90161CDE9032097
:1053300040460EF033FB0E2113F02CFB30440138B5
:105340000DF114090390484600212C2228F098FC06
:10535000B87DB98A8DF82B00F87DADF82910396831
:105360008DF828000869CDF834800B900889B96859
:105370000E90022005918DF830005046494615F0F8
:10538000E1FD15E0A0B90DF11408404612F014FE3D
:10539000F87DB97D8DF83C00B88AFA68ADF8340024
:1053A00001208DF836100E90504641461EF0B6FF93
:1053B000002D18BF002C02D110B0BDE8F087504678
:1053C0002946224620F052F810B0BDE8F0870000D0
:1053D0002DE9F04FF9B0054622F0A6FF0446806B98
:1053E000002800F06981284622F0C8FF618D8346BD
:1053F00041F00800608575A920462AF073FD608D94
:1054000024AE40F00800258D4FF0000A608530463C
:10541000A4F828A015F06AFA0FAF384613F048FE3A
:1054200020464FF4A02132462BF060FF20464FF477
:10543000A0213A462BF092FE608D002120F008005A
:10544000608520461022099525852BF04DFC07909C
:105450002046002111222BF047FC06902046002117
:1054600012222BF041FC05902046002113222BF044
:105470003BFCA16B0490002900F01A814CF2C96634
:10548000C0F607064FF00009CDF820B016E09DF8F1
:105490004C01DDF820B040F040008DF84C0158463A
:1054A00040A971AA4795CDF808A113F0D1FDA06BD2
:1054B0000AF1010A824580F0FB8000BFE06A3146B4
:1054C00050F8290031F05CF9002809F10109F5D004
:1054D000606B30F81A00C106E9D4410608D4216C8B
:1054E0004FF000088A45099908BF01F02E0801E035
:1054F0004FF08008216BC0F3002001EB0A124FEA45
:105500000A1350EA080CC958D2E90137DDE97505DC
:10551000D26801443844719105EB0301739005EBA7
:1055200002007291749020D0608D55AD40F008005B
:1055300060852846A4F828C015F0D8F940AF384651
:1055400013F0B6FD20464FF4A0212A462BF0CEFEE4
:1055500020464FF4A0213A462BF000FE608D0999B9
:1055600020F008002185608509E055A824A9702253
:1055700028F0B4FA40A80FA9542228F0AFFA9DF8F9
:105580009D01CDF85CA1C10633D500F0E00000F12B
:105590000F018DF89D116169059B719A19448A422A
:1055A00004BF40F00B008DF89D01E069049A7399E7
:1055B000801A814205D19DF89D0100F0F7008DF819
:1055C0009D01A069079A72991044814205D19DF806
:1055D0009D0100F0FD008DF89D01206A069A7499E6
:1055E000801A814205D19DF89D0100F0FE008DF8E2
:1055F0009D0171A80EF0C2F918F020010C9107D09E
:10560000616B31F81A10490502D57299091A729125
:105610000A90584655A971AA14F0DAFE4898DDF8A8
:1056200038B10B90E06ADDF83C8100EB890050F85E
:10563000045C75A80EF0B2F99DF84B710B9ACDE998
:1056400000B00DA829464346029732F0DFFA71AF49
:1056500038460EF0A3F90D99401A719900EBD070FD
:1056600001EB6000719038460EF088F9DDE90D21FC
:10567000DDE97173401A3A4400EBD07073920C9AD2
:1056800003EB60000144002A729074913FF4FFAE76
:10569000626B32F81A2052057FF5F9AE0A9A02EBD6
:1056A000D272A0EB62007290A1EB62007490EEE601
:1056B000608D20F00800608579B0BDE8F08F0000B3
:1056C0002DE9F04FDBB0044622F02EFE05462046C1
:1056D00022F054FE82462846002130222BF004FBA3
:1056E00006462846002112222BF0FEFA3044049090
:1056F0002846002113222BF0F7FA46AF044638461D
:1057000013F0D6FC28464FF400313A462BF026FD24
:10571000D5F83090B9F1000F33D1A86B90B131F0CA
:105720005DF8A8B16A6C0021002300BF934210D03D
:10573000AF6B7F5C01310A2F08BF01338842F5D17E
:10574000014606E000208DF898000DF1980918E058
:1057500000214FF0000C88424FF000030DD9401A91
:10576000002326AFAA6B0A44D25C0A2A05D07E2BFE
:1057700003D8FA5401339842F4D10DF1980909F88D
:1057800003C095F84C00A11900F00F000138B0FAE1
:1057900080F0039144092846002127222BF0A4FA27
:1057A0004FF0FF3151FA80F0B0FA80F1686B49098F
:1057B000002841EA040B6DD024F02AFD044602289B
:1057C00010D19DF86301696B4E9ADDE954636FF067
:1057D0006047CDE9017007A8009632F017FADDE9BD
:1057E00007680DE0686B07A923F0A2FFBDF82060F1
:1057F000BDF822804FF0FF3101281CBF0E468846BD
:10580000284650F8141FBBF1000F426822912392E2
:1058100042443144A2F10102A1F1010125922491F7
:1058200004D0049B002722A9072204E00399002743
:105830004B4222A9082200970DF090FE022C07D1BE
:10584000686B46A94D9022AA504613F001FC21E056
:1058500007AC204613F0FEFA28464FF400312246EA
:105860002BF020FC06EBD67108EBD87204F1400057
:10587000491052102EF084FE28464FF400316E225B
:105880002BF032FA696B12900E9122AA50462146F3
:1058900013F08AFA07AC204613F00AFC28460021D0
:1058A000224600242BF05AFC9DF867000F9ADDE990
:1058B00015736FF06041CDE9011005A849460097C6
:1058C00032F0A4F9284650F8141FDDE9052322918F
:1058D0001144013924914168026A23911944013924
:1058E000259142B1BBF1000F0AD0039900274B422A
:1058F00022A9082208E022A909220023009404E03A
:10590000049B002722A9072200970DF027FE286B91
:10591000CDF8389028B99DF8680040F040008DF827
:10592000680007A922AA504613F092FB5BB0BDE8BD
:10593000F08F00002DE9F04FADF5117D044622F007
:10594000F3FC0546204622F019FD05F1140700F18D
:10595000180406468DA8394622460EF035F8002870
:1059600000F02682E26894E80B008C9289AA0BC2B0
:105970008DAB0FCB0C9784E807002846002130221E
:1059800013960F94E3604FF0000A2BF0ADF98346B5
:105990002846002110222BF0A7F9044628460021B2
:1059A00011222BF0A1F980462846002112222BF06B
:1059B0009BF90B902846002113222BF095F9814684
:1059C000688D67AF40F008002E8D68853846A5F8D1
:1059D00028A014F08BFF28464FF4A0213A462BF064
:1059E00085FC36AF384613F063FB28464FF4A02100
:1059F0003A462BF0B3FB688DAF6920F0080068854C
:105A000028460E962E852AF009FD04EB0B01C043B3
:105A100039440844CDE985A028460A94CDF80CA263
:105A20002AF0F4FC07462846002127222BF05CF9D7
:105A3000296B002900F0B8810B99C2B2F843594490
:105A4000084404906FEA09010BEB0700081A039061
:105A50006FEA08009146099108904FF0000C4FF052
:105A600000080D92A86B869B50F82C10909F581C34
:105A700084905818BB428690CDE9067380F28A81E3
:105A8000B9F1010F04D1E869039A1044839004E04E
:105A90000C98049A006810448590E86A002800F089
:105AA000798101EBD171491000240591CDF850C0E6
:105AB0000EE000BFDDF83490DDF850C0E86A0AEB74
:105AC00008010BF10104844201F1010880F06281B8
:105AD0006A6B52F82810002914BF91F800E04FF0CB
